:020000040800F2
:10000000780F00208D01000889010008890100088F
:10001000890100088901000889010008000000002A
:10002000000000000000000000000000890100083E
:10003000890100080000000089010008E9020008A9
:100040008901000889010008890100088901000868
:100050008901000889010008890100088901000858
:100060008901000889010008890100088901000848
:100070008901000889010008890100088901000838
:100080006903000889010008890100088901000846
:100090008901000889010008890100088901000818
:1000A0008901000889010008890100088901000808
:1000B0001903000889010008890100088901000866
:1000C00089010008890100088901000889010008E8
:1000D000890100088901000815030008890100084A
:1000E00089010008890100088901000889010008C8
:1000F00089010008890100088901000889010008B8
:1001000089010008890100088901000889010008A7
:100110008901000889010008890100088901000897
:10012000A10300088901000889010008890100086D
:100130008901000889010008890100088901000877
:100140008901000889010008890100088901000867
:100150008901000889010008890100088901000857
:100160008901000889010008890100088901000847
:100170008901000889010008890100088901000837
:100180008901000889010008FEE700BF1449154BEA
:10019000994210B50BD2C843184420F00300124C0A
:1001A00004300023E258CA5004338342FAD10F4886
:1001B0000F494FF000028842B8BF40F8042BFFF609
:1001C000FAAFDFF83000016841F47001016000F01F
:1001D000D3FA00F051FBBDE8104000F00DB800BFAD
:1001E00000000020180000208410000818000020E3
:1001F0007807002088ED00E0F8B5294B29491E68F2
:10020000294A2A4B2A4CA1FB0606B6094EF2FC07E6
:1002100000214FF0004E0720013EF0255E6082F87D
:100220002350996018605E6082F8235099601860CE
:1002300082F82310C7F800E000F03CF800F050FB13
:10024000636943F480536361636943F400536361FA
:10025000636943F480436361636943F400434FF48B
:100260007A70636100F04AF8636983F480536361D4
:10027000636983F400536361636983F4804363615A
:10028000636983F40043636100F086FB00F03AFC8D
:1002900000F070FC00F0BAFB00F0EAFBFEE700BFE4
:1002A00010000020D34D621000ED00E010E000E0EF
:1002B000000C02400B4B1A6C42F4003242F0010277
:1002C0001A641A6B42F009021A635A6C42F4807283
:1002D0005A641A6B42F400121A631A6B42F48002D9
:1002E0001A63704700380240034B1A6812B11A684B
:1002F000013A1A60704700BF1800002082B0044A1B
:100300000190019B13601368002BFCD102B0704771
:1003100018000020704700BF4FF0804108B50B8ADD
:10032000DB071BD50B8A0E480E4A23F001031B0482
:100330001B0C0B8241691E2341F480514161136003
:100340001368002BFCD1064B5A6922F480525A6183
:1003500000F048FC00F070FC00F096FC08BD00BF07
:10036000000C0240180000200B4B5A68510503D5C1
:10037000DA6842F48062DA60074B5A68120503D5E6
:10038000DA6842F44062DA60044BD3F8802142F02C
:100390008002C3F8802170470060024000E100E065
:1003A0000B4B1A68D10603D59A6842F010029A6086
:1003B000074B1A68920603D59A6842F030029A6099
:1003C000044BD3F8802142F08002C3F880217047AB
:1003D0000064024000E100E0F8B5BE4BBE4C1F686F
:1003E000BE4927603846032200F0E6FD10B9BC4B39
:1003F00001221A803846BB49062200F0DDFD064680
:10040000002840F09B80F9797A7AFB7A97F808E027
:1004100097F80AC0387BB44D3039303A303B01EBA5
:100420008101ACF1300C30380737AEF1300E02EB01
:10043000820203EB83030EEB410E0CEB420200EB56
:1004400043032C2138466A7085F800E0AB702760C2
:1004500000F038FD01302060024612F8013BA3F1A4
:100460003001092940F279812E2BF6D09C4F2C21A6
:100470007E6000F027FD421C22604378532B08BFAA
:10048000764210464FF02C0108BF7E60AE6000F04F
:1004900019FD013020600246002612F8013BA3F14D
:1004A0003001092940F25F812E2BF6D02C217E608D
:1004B00000F008FD421C226043788949572B04BF95
:1004C00076424E6010462C21EE6000F0FBFC431C8F
:1004D000236042781846B2F1300318BF01232C2163
:1004E000AB7100F0EFFC431C2C211846236000F098
:1004F000E9FC013020600146002211F8013BA3F124
:100500003006092E40F223812E2BF6D02C21EA75DD
:1005100000F0D8FC013020600146002211F8013BB8
:10052000A3F13006092E40F206812E2BF6D06F4B38
:100530002A825A6982F4005207465A6138466C4949
:10054000062200F039FD0646002840F0B580F97912
:100550007A7AFB7A97F808E097F80AC0387B624D00
:100560003039303A303BACF1300C01EB810130389E
:100570000737AEF1300E02EB820203EB83030EEB82
:10058000410E0CEB420200EB43032C21384685F868
:1005900000E06A70AB70276000F094FC431C23609D
:1005A0004278413A1846534253412C21EB7100F0F6
:1005B00089FC01302060024612F8013BA3F13001B2
:1005C000092940F2BE802E2BF6D0454F2C217E60AB
:1005D00000F078FC421C22604378532B08BF76421F
:1005E00010464FF02C0108BF7E60AE6000F06AFC40
:1005F000013020600246002612F8013BA3F13001D1
:10060000092940F292802E2BF6D02C217E6000F03A
:1006100059FC421C226043783149572B04BF764273
:100620004E6010462C21EE6000F04CFC0130206042
:100630000146002211F8013BA3F13006092E6ED9C4
:100640002E2BF7D02C21AA8200F03CFC0130206038
:100650000146002211F8013BA3F13006092E58D9BA
:100660002E2BF7D02C216A8200F02CFC471C27602F
:10067000417890F802C04279067990F806E01B4B69
:10068000303901EB8101ACF1300C0CEB4101E97028
:10069000C178303A303901EB8101303E02EB820201
:1006A000AEF1300000EB420206EB410129716A71A4
:1006B0005A6982F480425A61F81C0E49032200F004
:1006C0007BFC28BBFA7A094B07F10B0121603C7BCC
:1006D00012E000BF54040020380400206C10000811
:1006E0001C000020701000083C040020000C024098
:1006F000781000088010000858691E49303A02EB53
:100700008202303C80F4004004EB420258618A755A
:10071000F8BD02EB820203EB4202303A9AE702EBA9
:10072000820203EB4202303A84E706EB860603EBD3
:100730004606303E60E702EB820203EB4202303AAB
:10074000ECE606EB860603EB4606303E34E702EBAA
:10075000820203EB4202303ACFE606EB860603EB59
:100760004606303E79E606EB860603EB4606303E4B
:1007700093E600BF3C040020394A3A4BD2F8881077
:10078000394841F47001C2F888101968002241F01C
:10079000010119609A60196821F0847121F4803197
:1007A00019605860196882B021F480211960DA60FC
:1007B000009201921A6842F480321A601A4603E0ED
:1007C000009BB3F5A06F09D0136803F400330193C5
:1007D000009B01330093019B002BF1D0214B1B6840
:1007E00013F4003318BF01230193019B012B05D0A3
:1007F0001B4B4FF000629A6002B07047194B1B4AC6
:10080000186C1B4940F080501864106840F4804018
:1008100010609A689A609A6842F400429A609A68F6
:1008200042F4A0529A6059601A6842F080721A60CD
:1008300019460B680B4A9B01FBD50E4B40F2056134
:100840001960936823F003039360936843F00203F5
:100850009360936803F00C03082BFAD1C8E700BF3C
:1008600000ED00E00038024010300024007000402D
:1008700008544007003C0240154B9A6802F00C02F5
:10088000042A23D0082A09D0124A1149124B896838
:10089000C1F30311595CCA401A617047586859681E
:1008A0005B6842024CBF0D4A0A4A01F03F01C3F3A4
:1008B0008813B2FBF1F202FB03F2054B5B68C3F352
:1008C000014301335B00B2FBF3F2DEE7034ADCE7EE
:1008D000003802400024F4000000002000127A00DA
:1008E0002C4B1A6842F080721A605A6802F48052E7
:1008F0005A609A6822F040729A609A6842F00072D8
:100900009A60DA6822F04072DA60DA6842F0807247
:10091000DA601A6842F080621A605A6802F4005283
:100920005A609A6822F040629A609A6842F00062C7
:100930009A60DA6822F04062DA60DA6842F0806237
:10094000DA601A6842F080521A605A6802F48042F3
:100950005A609A6822F040529A609A6842F00052B7
:100960009A60DA6822F04052DA60DA6842F0805227
:10097000DA601A6842F080421A605A6802F4004253
:100980005A609A6842F000429A60DA6842F0804207
:10099000DA607047000C02401A4B1B4A596841F458
:1009A00080715960996841F002019960D96A41F4F7
:1009B0008011D962596B41F010015963596B41F4B0
:1009C00010715963996841F001019960996821F4A7
:1009D00080719960996841F480719960D96841F497
:1009E000C011D960D96841F0C061D960516841F443
:1009F000000151605068002140F480005060D964CB
:100A0000704700BF00200140002301404FF08043A9
:100A100070B41A88124C1348134E0068134922F020
:100A200001021204120C1A8022685208B2FBF0F282
:100A30000138013A4FF08055402480B23260188569
:100A4000DA620D6081F81C439A8992B242F0010289
:100A50009A811A8892B242F001021A8070BC7047E3
:100A600010000020140000202400002000E100E01D
:100A700070B41E4B1E4D1F481F4C204A20494FF496
:100A800016462E601D6845F080051D601D6845F006
:100A900020051D609D6845F0C0059D609D6845F07E
:100AA00030059D60DD6845F01005DD601D6A45F488
:100AB000E0651D621D6A45F4E0451D62006880081E
:100AC000A4FB0030000C40F2464308601381938978
:100AD0009BB243F4005343F00C039381938A9BB27F
:100AE00043F04003938270BC704700BF0000024097
:100AF0002800002010000020B5814E1B004400405B
:100B00002C040020174B1848184A30B41D68184CA4
:100B100025F001054FF480711D609C60D86059601C
:100B2000196841F480611960196841F00061196029
:100B3000196821F400511960196821F400611960E5
:100B4000196841F010011960196841F48071196049
:100B500018684FF4803140F00100186030BC11601B
:100B6000704700BF886002405804002000E100E0A8
:100B700004440040174B1848184A30B41D68184CFC
:100B800025F001054FF400711D609C60D86059602C
:100B9000196841F480611960196821F06061196079
:100BA000196841F400511960196841F40061196035
:100BB000196841F010011960196841F480711960D9
:100BC00018684FF0807140F00100186030BC51602F
:100BD000704700BF106402402C00002000E100E0DC
:100BE0004C20014070B50F4C0F49104D4FF48076EA
:100BF0003246204600F0CCF80D4B204624211C60E4
:100C000000F060F90B4B2860021B013224210130F7
:100C10001A8000F057F9314628602046BDE8704040
:100C2000FFF7DABB580500205804002054040020C8
:100C30003804002034040020114B124A996821F432
:100C400080719960996841F480719960196821F008
:100C500010011960196821F020011960196821F04C
:100C600002011960996841F0804199601368DB06C0
:100C7000FCD4034B9A6822F080429A60704700BF10
:100C80000020014000600240344A118840F2DC53E9
:100C9000994210B432495DD900230B700121DFED78
:100CA000317A01E0F0EE477A32F8130007EE100ACD
:100CB0000233B8EEC77A9BB2B3F5007F37EE277ADE
:100CC000F0D3DFED295ADFED297A9FED296A294813
:100CD000DFED246AE7EE257A0B46B3EE097AC7EE1C
:100CE000867A77EE877AC0ED007A01E0F0EE676AE7
:100CF00032F8130007EE900A0233F8EEE77A9BB25F
:100D0000B3F5007F77EEA67AF0D3DFED175A9FEDAB
:100D10001A6ADFED1A6A9FED1A7A1A4C1A481B4AB2
:100D200067EEA57AC1F5FF7367EE867A0133C7EEE9
:100D3000A67AC3F34E03023101EB430323805DF82F
:100D4000044BC7EE877A77EEA77AC0ED007AC2ED42
:100D5000007A704701230B700221A0E72C000020CD
:100D600068060020000000000000803B00003EC438
:100D700000401C455C06002000404E4500F07F45C9
:100D800000007A443404002064060020600600203D
:100D9000844641EA000313F003036DD1403A41D386
:100DA00051F8043B40F8043B51F8043B40F8043B45
:100DB00051F8043B40F8043B51F8043B40F8043B35
:100DC00051F8043B40F8043B51F8043B40F8043B25
:100DD00051F8043B40F8043B51F8043B40F8043B15
:100DE00051F8043B40F8043B51F8043B40F8043B05
:100DF00051F8043B40F8043B51F8043B40F8043BF5
:100E000051F8043B40F8043B51F8043B40F8043BE4
:100E100051F8043B40F8043B51F8043B40F8043BD4
:100E2000403ABDD2303211D351F8043B40F8043B74
:100E300051F8043B40F8043B51F8043B40F8043BB4
:100E400051F8043B40F8043B103AEDD20C3205D384
:100E500051F8043B40F8043B043AF9D2043208D07C
:100E6000D2071CBF11F8013B00F8013B01D30B88EE
:100E700003806046704700BF082A13D38B078DD0CC
:100E800010F003038AD0C3F10403D21ADB071CBF9E
:100E900011F8013B00F8013B80D331F8023B20F808
:100EA000023B7BE7043AD9D3013A11F8013B00F841
:100EB000013BF9D20B7803704B7843708B788370C9
:100EC00060467047C9B2F0B4002947D085070FD0FB
:100ED0000278002A3FD091423ED0431C05E013F82F
:100EE000012B002A37D0914236D09A071846F6D106
:100EF000036841EA012747EA074783EA0702A2F1AC
:100F00000135A3F1013425EA020224EA0303134365
:100F100013F0803F11D1021D104652F8043B83EAC2
:100F20000704A4F10136A3F1013526EA040425EAF9
:100F30000303234313F0803FEED00378002B39D016
:100F4000994209D0431C01E0914205D0184613F89C
:100F5000012B002AF8D11046F0BC704784070BD053
:100F60000378002BF8D0431C03E002780133002AF9
:100F7000F2D099071846F8D10368A3F1013222EAAA
:100F8000030313F0803F0AD1031D184653F8042BC6
:100F9000A2F1013121EA020212F0803FF5D003787C
:100FA000002BD9D0431C184601330278002AFAD10D
:100FB000F0BC70471846CFE730B4002A4AD040EA68
:100FC000010313F003032DD1032A2BD904680D6804
:100FD000AC4227D1043A3DD0A4F1013525EA0404FE
:100FE00014F0803F3CD10C4603460EE05B68646819
:100FF000A3F10135A34225EA030513D1043A29D010
:1010000015F0803F29D103460C46032A00F1040065
:1010100001F10401EAD8551E2AB918792279801AFB
:1010200030BC7047551E03780A7893421AD1DDB15F
:10103000B3B16C1C0C448B1C014604E0A3420CD0E1
:1010400001330028ECD011F8010F13F8012C904265
:10105000F4D0E4E7104630BC7047002030BC704745
:101060001846DDE71846DAE72846D9E72447500056
:101070002447504747410000244750524D43000049
:04108000475356007C
:101084000000000000000000010203040607080934
:08109400007A030A10A4000019
:0400000508000000EF
:00000001FF
